:10000000E3ED00F0E9ED00F0CEB604EF00F0000EF5
:10001000C26F010EC26FC09FC081F4ECFFF0CEB67C
:1000200017EF00F0F4ECFFF0CEB612EF00F0C09145
:10003000C083F4ECFFF0CEB623EF00F0F4ECFFF059
:10004000CEB61EEF00F0C093C085F4ECFFF0CEB644
:100050002FEF00F0F4ECFFF0CEB62AEF00F0C095E1
:10006000C087F4ECFFF0CEB63BEF00F0F4ECFFF00D
:10007000CEB636EF00F0C097C089F4ECFFF0CEB6F4
:1000800047EF00F0F4ECFFF0CEB642EF00F0C0997D
:10009000C08BF4ECFFF0CEB653EF00F0F4ECFFF0C1
:1000A000CEB64EEF00F0C09BC08DF4ECFFF0CEB6A4
:1000B0005FEF00F0F4ECFFF0CEB65AEF00F0C09D19
:1000C000C08FF4ECFFF0CEB66DEF00F0F4ECFFF073
:1000D000CEB666EF00F06DEF00F0000EC26F020EBC
:1000E000C26FC09FC081F4ECFFF0F4ECFFF0CEB61D
:1000F0007FEF00F0F4ECFFF0CEB67AEF00F0C091A5
:10010000C083F4ECFFF0F4ECFFF0CEB68DEF00F01E
:10011000F4ECFFF0CEB688EF00F0C093C085F4ECAD
:10012000FFF0F4ECFFF0CEB69BEF00F0F4ECFFF044
:10013000CEB696EF00F0C095C087F4ECFFF0F4EC7B
:10014000FFF0CEB6A9EF00F0F4ECFFF0CEB6A4EFCE
:1001500000F0C097C089F4ECFFF0F4ECFFF0CEB6ED
:10016000B7EF00F0F4ECFFF0CEB6B2EF00F0C099BC
:10017000C08BF4ECFFF0F4ECFFF0CEB6C5EF00F06E
:10018000F4ECFFF0CEB6C0EF00F0C09BC08DF4ECF5
:10019000FFF0F4ECFFF0CEB6D3EF00F0F4ECFFF09C
:1001A000CEB6CEEF00F0C09DC08FF4ECFFF0F4ECC3
:1001B000FFF0CEB607EF00F0F4ECFFF0CEB6DCEFC8
:1001C00000F007EF00F00001600EAD6F020EB16F9E
:1001D00012000401D069C06B106BC86B0401D269B6
:1001E000C26B206BCA6B0401CE6B006BC6870187A4
:0201F0001200FB
:020000040001F9
:10FFE40000EF00F0FA0E016EF90E006E0000002E14
:0CFFF400F8EFFFF0012EF6EFFFF0120016
:020000040030CA
:10000000EC0D27C79FFFFFFFFFFFFFFFFFFFFFFF75
:10001000FFFFFFFFFFFFFFFFFFFFFFFFFFFFFFFFF0
:03002000FFFFFFE0
:00000001FF
