:10000000F7ED00F0FDED00F0CEA69DEF00F0F4EC72
:10001000FFF0030EC16FF4ECFFF0F4ECFFF0F4EC32
:10002000FFF0CEB616EF00F09DEF00F0F4ECFFF01D
:100030009F0EC16FF4ECFFF0F4ECFFF0F4ECFFF076
:10004000CEB625EF00F09DEF00F0F4ECFFF0250EAA
:10005000C16FF4ECFFF0F4ECFFF0F4ECFFF0CEB67F
:1000600034EF00F09DEF00F0F4ECFFF00D0EC16FE7
:10007000F4ECFFF0F4ECFFF0F4ECFFF0CEB643EF5D
:1000800000F09DEF00F0F4ECFFF0990EC16FF4EC7E
:10009000FFF0F4ECFFF0F4ECFFF0CEB652EF00F01E
:1000A0009DEF00F0F4ECFFF0490EC16FF4ECFFF0AF
:1000B000F4ECFFF0F4ECFFF0CEB661EF00F09DEF52
:1000C00000F0F4ECFFF0410EC16FF4ECFFF0F4EC43
:1000D000FFF0F4ECFFF0CEB670EF00F09DEF00F013
:1000E000F4ECFFF01F0EC16FF4ECFFF0F4ECFFF046
:1000F000F4ECFFF0CEB67FEF00F09DEF00F0F4ECF3
:10010000FFF0010EC16FF4ECFFF0F4ECFFF0F4EC43
:10011000FFF0CEB68EEF00F09DEF00F0F4ECFFF0B4
:10012000190EC16FF4ECFFF0F4ECFFF0F4ECFFF00B
:10013000CEB607EF00F09DEF00F0F4ECFFF0110EEB
:10014000C16FF4ECFFF0F4ECFFF0F4ECFFF0CEA69E
:10015000ACEF00F007EF00F0F4ECFFF0C10EC16F60
:10016000F4ECFFF0F4ECFFF0F4ECFFF0CEA6BBEF04
:1001700000F007EF00F0F4ECFFF0630EC16FF4EC59
:10018000FFF0F4ECFFF0F4ECFFF0CEA6CAEF00F0C5
:1001900007EF00F0F4ECFFF0850EC16FF4ECFFF018
:1001A000F4ECFFF0F4ECFFF0CEA6D9EF00F007EF8F
:1001B00000F0F4ECFFF0610EC16FF4ECFFF0F4EC32
:1001C000FFF0F4ECFFF0CEA6E8EF00F007EF00F050
:1001D000F4ECFFF0710EC16FF4ECFFF0F4ECFFF003
:1001E000F4ECFFF0CEA69DEF00F007EF00F0000169
:1001F000600EAD6F020EB16F12000401D16BC169C8
:10020000186BC96B0401CE6B006BC68701871200A7
:020000040001F9
:10FFE40000EF00F0FA0E016EF90E006E0000002E14
:0CFFF400F8EFFFF0012EF6EFFFF0120016
:020000040030CA
:10000000EC0D27C79FFFFFFFFFFFFFFFFFFFFFFF75
:10001000FFFFFFFFFFFFFFFFFFFFFFFFFFFFFFFFF0
:03002000FFFFFFE0
:00000001FF
