:0400000016EF00F007
:10000800B4B059EF00F0B8B0B890C06B05681000F4
:10001800000E056E050E046EAFA015EF00F02AEF76
:1000280000F010005FED00F065ED00F07DED00F0F0
:1000380087ED00F09BEC00F09BEC00F0C3869BEC96
:1000480000F09BEC00F0C3961EEF00F0AF900A0E94
:10005800036E000E026E31EF00F00401000EFB6F1C
:10006800000EFA6F02444DEC00F005B215EF00F0F7
:10007800C06E066E9BEC00F0032E4AEF00F045EFD1
:1000880000F0042E2AEF00F015EF00F0022A31EFFD
:1000980000F0F926810C420C240C180C000C180CEA
:1000A800240C420C810C000C1200B4900650C06F56
:1000B80005680BEF00F00001600EAD6F020EB16F26
:1000C80012000401D397C387286BCB97D395CB85B0
:1000D80029850401D069C06B106BC86B0401CE97E9
:1000E800006BC68701870401CF990899C7890989D8
:1000F80012000201030E3E6F02010C0E3F6F020157
:100108002A0E406F1200D68A0301639168816C81C0
:10011800D690AF909F80D692B490A480D694B89091
:10012800A880D68ED68C120091EF00F01200FA0E3D
:10013800016EF90E006E0000002E9FEF00F0012EF8
:060148009DEF00F0120023
:020000040030CA
:10000000EC0D27C79FFFFFFFFFFFFFFFFFFFFFFF75
:10001000FFFFFFFFFFFFFFFFFFFFFFFFFFFFFFFFF0
:03002000FFFFFFE0
:00000001FF
